{
  "transactions": [
    {
      "hash": "0x6d226a31ad1692a20de758db4656da2f24f6227032013ae498fa85fd3190a18e",
      "transactionType": "CALL",
      "contractName": null,
      "contractAddress": "0x779877a7b0d9e8603169ddbd7836e478b4624789",
      "function": "transferAndCall(address,uint256,bytes)",
      "arguments": [
        "0x9DdfaCa8183c41ad55329BdeeD9F6A8d53168B1B",
        "3000000000000000000",
        "0x43438513c8fe1fc2c6a6f4fbfbc974aed074fbcbb3a9e8a5b99ae0083e15ff75"
      ],
      "transaction": {
        "from": "0x1993c91dc5f9389c8741075acad42be755266cc8",
        "to": "0x779877a7b0d9e8603169ddbd7836e478b4624789",
        "gas": "0x1c1ff",
        "value": "0x0",
        "input": "0x4000aea00000000000000000000000009ddfaca8183c41ad55329bdeed9f6a8d53168b1b00000000000000000000000000000000000000000000000029a2241af62c00000000000000000000000000000000000000000000000000000000000000000060000000000000000000000000000000000000000000000000000000000000002043438513c8fe1fc2c6a6f4fbfbc974aed074fbcbb3a9e8a5b99ae0083e15ff75",
        "nonce": "0xb",
        "chainId": "0xaa36a7"
      },
      "additionalContracts": [],
      "isFixedGasLimit": false
    }
  ],
  "receipts": [
    {
      "status": "0x1",
      "cumulativeGasUsed": "0x1c1e7de",
      "logs": [
        {
          "address": "0x779877a7b0d9e8603169ddbd7836e478b4624789",
          "topics": [
            "0xddf252ad1be2c89b69c2b068fc378daa952ba7f163c4a11628f55a4df523b3ef",
            "0x0000000000000000000000001993c91dc5f9389c8741075acad42be755266cc8",
            "0x0000000000000000000000009ddfaca8183c41ad55329bdeed9f6a8d53168b1b"
          ],
          "data": "0x00000000000000000000000000000000000000000000000029a2241af62c0000",
          "blockHash": "0x776d494307a8a5bd55f786918f854b0d68b66ba49cdc3277e25c02a481f5723c",
          "blockNumber": "0x866ed1",
          "transactionHash": "0x6d226a31ad1692a20de758db4656da2f24f6227032013ae498fa85fd3190a18e",
          "transactionIndex": "0xc0",
          "logIndex": "0x1a6",
          "removed": false
        },
        {
          "address": "0x779877a7b0d9e8603169ddbd7836e478b4624789",
          "topics": [
            "0xe19260aff97b920c7df27010903aeb9c8d2be5d310a2c67824cf3f15396e4c16",
            "0x0000000000000000000000001993c91dc5f9389c8741075acad42be755266cc8",
            "0x0000000000000000000000009ddfaca8183c41ad55329bdeed9f6a8d53168b1b"
          ],
          "data": "0x00000000000000000000000000000000000000000000000029a2241af62c00000000000000000000000000000000000000000000000000000000000000000040000000000000000000000000000000000000000000000000000000000000002043438513c8fe1fc2c6a6f4fbfbc974aed074fbcbb3a9e8a5b99ae0083e15ff75",
          "blockHash": "0x776d494307a8a5bd55f786918f854b0d68b66ba49cdc3277e25c02a481f5723c",
          "blockNumber": "0x866ed1",
          "transactionHash": "0x6d226a31ad1692a20de758db4656da2f24f6227032013ae498fa85fd3190a18e",
          "transactionIndex": "0xc0",
          "logIndex": "0x1a7",
          "removed": false
        },
        {
          "address": "0x9ddfaca8183c41ad55329bdeed9f6a8d53168b1b",
          "topics": [
            "0x1ced9348ff549fceab2ac57cd3a9de38edaaab274b725ee82c23e8fc8c4eec7a",
            "0x43438513c8fe1fc2c6a6f4fbfbc974aed074fbcbb3a9e8a5b99ae0083e15ff75"
          ],
          "data": "0x000000000000000000000000000000000000000000000000000000000000000000000000000000000000000000000000000000000000000029a2241af62c0000",
          "blockHash": "0x776d494307a8a5bd55f786918f854b0d68b66ba49cdc3277e25c02a481f5723c",
          "blockNumber": "0x866ed1",
          "transactionHash": "0x6d226a31ad1692a20de758db4656da2f24f6227032013ae498fa85fd3190a18e",
          "transactionIndex": "0xc0",
          "logIndex": "0x1a8",
          "removed": false
        }
      ],
      "logsBloom": "0x0000000400000000000000000000000000000000002000000000000002000000000000000000000000000000000000000000000000000000000000000000000000000000000000000000000800000000000000000000000000002000002000000c000100000000000000000000000000000000000000000000000010000040000000000000000000000000010000800000000020000000000000000000000000000000000000000000000000810000000000000000000000000004000000000000000002000000000200000000000000000000000000000100000000020000000010000000000000800000000000000000080000000000000000000000000000",
      "type": "0x2",
      "transactionHash": "0x6d226a31ad1692a20de758db4656da2f24f6227032013ae498fa85fd3190a18e",
      "transactionIndex": "0xc0",
      "blockHash": "0x776d494307a8a5bd55f786918f854b0d68b66ba49cdc3277e25c02a481f5723c",
      "blockNumber": "0x866ed1",
      "gasUsed": "0x133b1",
      "effectiveGasPrice": "0xfbb5d",
      "from": "0x1993c91dc5f9389c8741075acad42be755266cc8",
      "to": "0x779877a7b0d9e8603169ddbd7836e478b4624789",
      "contractAddress": null
    }
  ],
  "libraries": [],
  "pending": [],
  "returns": {},
  "timestamp": 1753090887,
  "chain": 11155111,
  "commit": "b04bb32"
}